{
  "_format": "hh-sol-artifact-1",
  "contractName": "Escrow",
  "sourceName": "contracts/Escrow.sol",
  "abi": [
    {
      "anonymous": false,
      "inputs": [
        {
          "indexed": false,
          "internalType": "uint256",
          "name": "",
          "type": "uint256"
        }
      ],
      "name": "Approved",
      "type": "event"
    },
    {
      "anonymous": false,
      "inputs": [
        {
          "indexed": false,
          "internalType": "uint256",
          "name": "",
          "type": "uint256"
        }
      ],
      "name": "Beneficiary_Withdraw",
      "type": "event"
    },
    {
      "anonymous": false,
      "inputs": [
        {
          "indexed": false,
          "internalType": "uint256",
          "name": "",
          "type": "uint256"
        }
      ],
      "name": "Created",
      "type": "event"
    },
    {
      "anonymous": false,
      "inputs": [
        {
          "indexed": false,
          "internalType": "uint256",
          "name": "",
          "type": "uint256"
        }
      ],
      "name": "Depositor_Withdraw",
      "type": "event"
    },
    {
      "anonymous": false,
      "inputs": [
        {
          "indexed": false,
          "internalType": "uint256",
          "name": "",
          "type": "uint256"
        }
      ],
      "name": "Unlocked",
      "type": "event"
    },
    {
      "inputs": [
        {
          "internalType": "uint256",
          "name": "_id",
          "type": "uint256"
        }
      ],
      "name": "approvePayment",
      "outputs": [],
      "stateMutability": "nonpayable",
      "type": "function"
    },
    {
      "inputs": [
        {
          "internalType": "address",
          "name": "_arbiter",
          "type": "address"
        },
        {
          "internalType": "address",
          "name": "_beneficiary",
          "type": "address"
        }
      ],
      "name": "createPayment",
      "outputs": [],
      "stateMutability": "payable",
      "type": "function"
    },
    {
      "inputs": [],
      "name": "getBalance",
      "outputs": [
        {
          "internalType": "uint256",
          "name": "",
          "type": "uint256"
        }
      ],
      "stateMutability": "view",
      "type": "function"
    },
    {
      "inputs": [],
      "name": "id",
      "outputs": [
        {
          "internalType": "uint256",
          "name": "",
          "type": "uint256"
        }
      ],
      "stateMutability": "view",
      "type": "function"
    },
    {
      "inputs": [
        {
          "internalType": "uint256",
          "name": "",
          "type": "uint256"
        }
      ],
      "name": "payments",
      "outputs": [
        {
          "internalType": "uint256",
          "name": "amount",
          "type": "uint256"
        },
        {
          "internalType": "address",
          "name": "arbiter",
          "type": "address"
        },
        {
          "internalType": "address",
          "name": "depositor",
          "type": "address"
        },
        {
          "internalType": "address",
          "name": "beneficiary",
          "type": "address"
        },
        {
          "internalType": "bool",
          "name": "isApproved",
          "type": "bool"
        },
        {
          "internalType": "bool",
          "name": "isUnlocked",
          "type": "bool"
        },
        {
          "internalType": "bool",
          "name": "isActive",
          "type": "bool"
        }
      ],
      "stateMutability": "view",
      "type": "function"
    },
    {
      "inputs": [
        {
          "internalType": "uint256",
          "name": "_id",
          "type": "uint256"
        }
      ],
      "name": "unlockPayment",
      "outputs": [],
      "stateMutability": "nonpayable",
      "type": "function"
    },
    {
      "inputs": [
        {
          "internalType": "uint256",
          "name": "_id",
          "type": "uint256"
        }
      ],
      "name": "withdrawBeneficiary",
      "outputs": [],
      "stateMutability": "nonpayable",
      "type": "function"
    },
    {
      "inputs": [
        {
          "internalType": "uint256",
          "name": "_id",
          "type": "uint256"
        }
      ],
      "name": "withdrawDepositor",
      "outputs": [],
      "stateMutability": "nonpayable",
      "type": "function"
    }
  ],
  "bytecode": "0x608060405234801561001057600080fd5b506114fd806100206000396000f3fe60806040526004361061007b5760003560e01c8063a8a6c2061161004e578063a8a6c20614610140578063af640d0f1461015c578063d4b1c1f814610187578063de14c818146101b05761007b565b806312065fe0146100805780636fb4f869146100ab57806387d81789146100d45780639e2b57ef14610117575b600080fd5b34801561008c57600080fd5b506100956101d9565b6040516100a29190611155565b60405180910390f35b3480156100b757600080fd5b506100d260048036038101906100cd9190610e1e565b6101e1565b005b3480156100e057600080fd5b506100fb60048036038101906100f69190610e1e565b6103ed565b60405161010e9796959493929190611170565b60405180910390f35b34801561012357600080fd5b5061013e60048036038101906101399190610e1e565b6104b6565b005b61015a60048036038101906101559190610de2565b61067c565b005b34801561016857600080fd5b50610171610a42565b60405161017e9190611155565b60405180910390f35b34801561019357600080fd5b506101ae60048036038101906101a99190610e1e565b610a48565b005b3480156101bc57600080fd5b506101d760048036038101906101d29190610e1e565b610c4a565b005b600047905090565b60006001600083815260200190815260200160002090508060030160009054906101000a900473ffffffffffffffffffffffffffffffffffffffff1673ffffffffffffffffffffffffffffffffffffffff163373ffffffffffffffffffffffffffffffffffffffff161461028a576040517f08c379a000000000000000000000000000000000000000000000000000000000815260040161028190610ff5565b60405180910390fd5b600115158160030160169054906101000a900460ff161515146102e2576040517f08c379a00000000000000000000000000000000000000000000000000000000081526004016102d990611015565b60405180910390fd5b600115158160030160149054906101000a900460ff1615151461033a576040517f08c379a000000000000000000000000000000000000000000000000000000000815260040161033190611135565b60405180910390fd5b6000816000015490506000826000018190555060008260030160166101000a81548160ff0219169083151502179055507feb8039459c05ec4f03384b2bbf27ee9b66725311b50b4028cbd008eb818829c9836040516103999190611155565b60405180910390a13373ffffffffffffffffffffffffffffffffffffffff166108fc829081150290604051600060405180830381858888f193505050501580156103e7573d6000803e3d6000fd5b50505050565b60016020528060005260406000206000915090508060000154908060010160009054906101000a900473ffffffffffffffffffffffffffffffffffffffff16908060020160009054906101000a900473ffffffffffffffffffffffffffffffffffffffff16908060030160009054906101000a900473ffffffffffffffffffffffffffffffffffffffff16908060030160149054906101000a900460ff16908060030160159054906101000a900460ff16908060030160169054906101000a900460ff16905087565b60006001600083815260200190815260200160002090508060010160009054906101000a900473ffffffffffffffffffffffffffffffffffffffff1673ffffffffffffffffffffffffffffffffffffffff163373ffffffffffffffffffffffffffffffffffffffff161461055f576040517f08c379a000000000000000000000000000000000000000000000000000000000815260040161055690611055565b60405180910390fd5b600115158160030160169054906101000a900460ff161515146105b7576040517f08c379a00000000000000000000000000000000000000000000000000000000081526004016105ae90611015565b60405180910390fd5b8060030160149054906101000a900460ff161580156105e557508060030160159054906101000a900460ff16155b610624576040517f08c379a000000000000000000000000000000000000000000000000000000000815260040161061b90611035565b60405180910390fd5b60018160030160156101000a81548160ff0219169083151502179055507ff27b6ce5b2f5e68ddb2fd95a8a909d4ecf1daaac270935fff052feacb24f1842826040516106709190611155565b60405180910390a15050565b8173ffffffffffffffffffffffffffffffffffffffff163373ffffffffffffffffffffffffffffffffffffffff1614156106eb576040517f08c379a00000000000000000000000000000000000000000000000000000000081526004016106e290611115565b60405180910390fd5b8073ffffffffffffffffffffffffffffffffffffffff163373ffffffffffffffffffffffffffffffffffffffff16141561075a576040517f08c379a0000000000000000000000000000000000000000000000000000000008152600401610751906110d5565b60405180910390fd5b8073ffffffffffffffffffffffffffffffffffffffff168273ffffffffffffffffffffffffffffffffffffffff1614156107c9576040517f08c379a00000000000000000000000000000000000000000000000000000000081526004016107c090611095565b60405180910390fd5b662386f26fc10000341015610813576040517f08c379a000000000000000000000000000000000000000000000000000000000815260040161080a90611075565b60405180910390fd5b60006040518060e001604052803481526020018473ffffffffffffffffffffffffffffffffffffffff1681526020013373ffffffffffffffffffffffffffffffffffffffff1681526020018373ffffffffffffffffffffffffffffffffffffffff16815260200160001515815260200160001515815260200160011515815250905060008060008154809291906108a990611238565b91905055905081600160008381526020019081526020016000206000820151816000015560208201518160010160006101000a81548173ffffffffffffffffffffffffffffffffffffffff021916908373ffffffffffffffffffffffffffffffffffffffff16021790555060408201518160020160006101000a81548173ffffffffffffffffffffffffffffffffffffffff021916908373ffffffffffffffffffffffffffffffffffffffff16021790555060608201518160030160006101000a81548173ffffffffffffffffffffffffffffffffffffffff021916908373ffffffffffffffffffffffffffffffffffffffff16021790555060808201518160030160146101000a81548160ff02191690831515021790555060a08201518160030160156101000a81548160ff02191690831515021790555060c08201518160030160166101000a81548160ff0219169083151502179055509050507f06acbfb32bcf8383f3b0a768b70ac9ec234ea0f2d3b9c77fa6a2de69b919aad181604051610a349190611155565b60405180910390a150505050565b60005481565b60006001600083815260200190815260200160002090508060020160009054906101000a900473ffffffffffffffffffffffffffffffffffffffff1673ffffffffffffffffffffffffffffffffffffffff163373ffffffffffffffffffffffffffffffffffffffff1614610af1576040517f08c379a0000000000000000000000000000000000000000000000000000000008152600401610ae8906110f5565b60405180910390fd5b600115158160030160169054906101000a900460ff16151514610b49576040517f08c379a0000000000000000000000000000000000000000000000000000000008152600401610b4090611015565b60405180910390fd5b600115158160030160159054906101000a900460ff16151514610ba1576040517f08c379a0000000000000000000000000000000000000000000000000000000008152600401610b98906110b5565b60405180910390fd5b60008160000154905060008260030160166101000a81548160ff0219169083151502179055507ff0820d17bbd41eda8802262ed5d807e24a05d67ecd34dee968a8b3346c5620c583604051610bf69190611155565b60405180910390a13373ffffffffffffffffffffffffffffffffffffffff166108fc829081150290604051600060405180830381858888f19350505050158015610c44573d6000803e3d6000fd5b50505050565b60006001600083815260200190815260200160002090508060010160009054906101000a900473ffffffffffffffffffffffffffffffffffffffff1673ffffffffffffffffffffffffffffffffffffffff163373ffffffffffffffffffffffffffffffffffffffff1614610cf3576040517f08c379a0000000000000000000000000000000000000000000000000000000008152600401610cea90611055565b60405180910390fd5b8060030160149054906101000a900460ff16158015610d2157508060030160159054906101000a900460ff16155b610d60576040517f08c379a0000000000000000000000000000000000000000000000000000000008152600401610d5790611035565b60405180910390fd5b60018160030160146101000a81548160ff0219169083151502179055507f3ad93af63cb7967b23e4fb500b7d7d28b07516325dcf341f88bebf959d82c1cb82604051610dac9190611155565b60405180910390a15050565b600081359050610dc781611499565b92915050565b600081359050610ddc816114b0565b92915050565b60008060408385031215610df557600080fd5b6000610e0385828601610db8565b9250506020610e1485828601610db8565b9150509250929050565b600060208284031215610e3057600080fd5b6000610e3e84828501610dcd565b91505092915050565b610e50816111f0565b82525050565b610e5f81611202565b82525050565b6000610e72600f836111df565b9150610e7d826112b0565b602082019050919050565b6000610e956012836111df565b9150610ea0826112d9565b602082019050919050565b6000610eb86023836111df565b9150610ec382611302565b604082019050919050565b6000610edb600b836111df565b9150610ee682611351565b602082019050919050565b6000610efe600e836111df565b9150610f098261137a565b602082019050919050565b6000610f21601b836111df565b9150610f2c826113a3565b602082019050919050565b6000610f446014836111df565b9150610f4f826113cc565b602082019050919050565b6000610f67601d836111df565b9150610f72826113f5565b602082019050919050565b6000610f8a600d836111df565b9150610f958261141e565b602082019050919050565b6000610fad6019836111df565b9150610fb882611447565b602082019050919050565b6000610fd06014836111df565b9150610fdb82611470565b602082019050919050565b610fef8161122e565b82525050565b6000602082019050818103600083015261100e81610e65565b9050919050565b6000602082019050818103600083015261102e81610e88565b9050919050565b6000602082019050818103600083015261104e81610eab565b9050919050565b6000602082019050818103600083015261106e81610ece565b9050919050565b6000602082019050818103600083015261108e81610ef1565b9050919050565b600060208201905081810360008301526110ae81610f14565b9050919050565b600060208201905081810360008301526110ce81610f37565b9050919050565b600060208201905081810360008301526110ee81610f5a565b9050919050565b6000602082019050818103600083015261110e81610f7d565b9050919050565b6000602082019050818103600083015261112e81610fa0565b9050919050565b6000602082019050818103600083015261114e81610fc3565b9050919050565b600060208201905061116a6000830184610fe6565b92915050565b600060e082019050611185600083018a610fe6565b6111926020830189610e47565b61119f6040830188610e47565b6111ac6060830187610e47565b6111b96080830186610e56565b6111c660a0830185610e56565b6111d360c0830184610e56565b98975050505050505050565b600082825260208201905092915050565b60006111fb8261120e565b9050919050565b60008115159050919050565b600073ffffffffffffffffffffffffffffffffffffffff82169050919050565b6000819050919050565b60006112438261122e565b91507fffffffffffffffffffffffffffffffffffffffffffffffffffffffffffffffff82141561127657611275611281565b5b600182019050919050565b7f4e487b7100000000000000000000000000000000000000000000000000000000600052601160045260246000fd5b7f6e6f742062656e65666963696172790000000000000000000000000000000000600082015250565b7f7061796d656e74206e6f74206163746976650000000000000000000000000000600082015250565b7f65697468657220616c726561647920617070726f766564206f7220756e6c6f6360008201527f6b65640000000000000000000000000000000000000000000000000000000000602082015250565b7f6e6f742061726269746572000000000000000000000000000000000000000000600082015250565b7f696e76616c696420616d6f756e74000000000000000000000000000000000000600082015250565b7f617262697465722073616d652061732062656e65666963696172790000000000600082015250565b7f7061796d656e74206e6f7420756e6c6f636b6564000000000000000000000000600082015250565b7f6465706f7369746f722073616d652061732062656e6566696369617279000000600082015250565b7f6e6f74206465706f7369746f7200000000000000000000000000000000000000600082015250565b7f6465706f7369746f722073616d65206173206172626974657200000000000000600082015250565b7f7061796d656e74206e6f7420617070726f766564000000000000000000000000600082015250565b6114a2816111f0565b81146114ad57600080fd5b50565b6114b98161122e565b81146114c457600080fd5b5056fea26469706673582212200523f429833c3bb7c761b06f226c3545cb5266226b20634b53f8fe53b145f70464736f6c63430008030033",
  "linkReferences": {},
  "deployedLinkReferences": {}
}